{
  "transactions": [
    {
      "hash": "0x70f01af3aea39812090c9598627dfdb65595e9889df8f9dd21b824bb49fe6a2c",
      "transactionType": "CALL",
      "contractName": null,
      "contractAddress": "0x906ccc5c3f95d7f67f6a7f3e1470e96335d3a18b",
      "function": "mint(address)",
      "arguments": [
        "0xBa5DCc0EBde559cC686D578899825fF0D9c0E35f"
      ],
      "transaction": {
        "from": "0xba5dcc0ebde559cc686d578899825ff0d9c0e35f",
        "to": "0x906ccc5c3f95d7f67f6a7f3e1470e96335d3a18b",
        "gas": "0x1fa3a",
        "value": "0x0",
        "input": "0x6a627842000000000000000000000000ba5dcc0ebde559cc686d578899825ff0d9c0e35f",
        "nonce": "0x3",
        "chainId": "0xaa36a7"
      },
      "additionalContracts": [],
      "isFixedGasLimit": false
    }
  ],
  "receipts": [
    {
      "status": "0x1",
      "cumulativeGasUsed": "0xba15d0",
      "logs": [
        {
          "address": "0x906ccc5c3f95d7f67f6a7f3e1470e96335d3a18b",
          "topics": [
            "0xddf252ad1be2c89b69c2b068fc378daa952ba7f163c4a11628f55a4df523b3ef",
            "0x0000000000000000000000000000000000000000000000000000000000000000",
            "0x000000000000000000000000ba5dcc0ebde559cc686d578899825ff0d9c0e35f",
            "0x0000000000000000000000000000000000000000000000000000000000000001"
          ],
          "data": "0x",
          "blockHash": "0x1465bcfea682972142d39132415100fa9b20794d5fb40cded2f027104c11cbe4",
          "blockNumber": "0x9e25dd",
          "blockTimestamp": "0x69a4bac4",
          "transactionHash": "0x70f01af3aea39812090c9598627dfdb65595e9889df8f9dd21b824bb49fe6a2c",
          "transactionIndex": "0x65",
          "logIndex": "0xcb",
          "removed": false
        }
      ],
      "logsBloom": "0x00000000000000000000000000000000000000000040000000000000000000000002000000002000000000000000000000000000000000000000000000040000080000000000000000000008000000000000000000040000000000000000000000000000020000000000000000080800000000000000000000000010000000000000000000000000000000000000000000000000000000000000000000000000000000000000000000000000000000000000000000000000000000000000000000000002000000000000800000000000000000000000000000000000000060000000000000000000000000000000000000000000000000000000000000000000",
      "type": "0x2",
      "transactionHash": "0x70f01af3aea39812090c9598627dfdb65595e9889df8f9dd21b824bb49fe6a2c",
      "transactionIndex": "0x65",
      "blockHash": "0x1465bcfea682972142d39132415100fa9b20794d5fb40cded2f027104c11cbe4",
      "blockNumber": "0x9e25dd",
      "gasUsed": "0x16e80",
      "effectiveGasPrice": "0x1283b6",
      "from": "0xba5dcc0ebde559cc686d578899825ff0d9c0e35f",
      "to": "0x906ccc5c3f95d7f67f6a7f3e1470e96335d3a18b",
      "contractAddress": null
    }
  ],
  "libraries": [],
  "pending": [],
  "returns": {},
  "timestamp": 1772403397868,
  "chain": 11155111,
  "commit": "90dabe0"
}